{
  "_format": "hh-sol-artifact-1",
  "contractName": "peerToken",
  "sourceName": "contracts/PeerToken.sol",
  "abi": [
    {
      "inputs": [
        {
          "internalType": "string",
          "name": "_name",
          "type": "string"
        },
        {
          "internalType": "string",
          "name": "_symbol",
          "type": "string"
        }
      ],
      "stateMutability": "nonpayable",
      "type": "constructor"
    },
    {
      "anonymous": false,
      "inputs": [
        {
          "indexed": true,
          "internalType": "address",
          "name": "owner",
          "type": "address"
        },
        {
          "indexed": true,
          "internalType": "address",
          "name": "spender",
          "type": "address"
        },
        {
          "indexed": false,
          "internalType": "uint256",
          "name": "value",
          "type": "uint256"
        }
      ],
      "name": "Approval",
      "type": "event"
    },
    {
      "anonymous": false,
      "inputs": [
        {
          "indexed": true,
          "internalType": "address",
          "name": "from",
          "type": "address"
        },
        {
          "indexed": true,
          "internalType": "address",
          "name": "to",
          "type": "address"
        },
        {
          "indexed": false,
          "internalType": "uint256",
          "name": "value",
          "type": "uint256"
        }
      ],
      "name": "Transfer",
      "type": "event"
    },
    {
      "inputs": [
        {
          "internalType": "address",
          "name": "owner",
          "type": "address"
        },
        {
          "internalType": "address",
          "name": "spender",
          "type": "address"
        }
      ],
      "name": "allowance",
      "outputs": [
        {
          "internalType": "uint256",
          "name": "",
          "type": "uint256"
        }
      ],
      "stateMutability": "view",
      "type": "function"
    },
    {
      "inputs": [
        {
          "internalType": "address",
          "name": "spender",
          "type": "address"
        },
        {
          "internalType": "uint256",
          "name": "amount",
          "type": "uint256"
        }
      ],
      "name": "approve",
      "outputs": [
        {
          "internalType": "bool",
          "name": "",
          "type": "bool"
        }
      ],
      "stateMutability": "nonpayable",
      "type": "function"
    },
    {
      "inputs": [
        {
          "internalType": "address",
          "name": "account",
          "type": "address"
        }
      ],
      "name": "balanceOf",
      "outputs": [
        {
          "internalType": "uint256",
          "name": "",
          "type": "uint256"
        }
      ],
      "stateMutability": "view",
      "type": "function"
    },
    {
      "inputs": [],
      "name": "buyToken",
      "outputs": [],
      "stateMutability": "payable",
      "type": "function"
    },
    {
      "inputs": [],
      "name": "decimals",
      "outputs": [
        {
          "internalType": "uint8",
          "name": "",
          "type": "uint8"
        }
      ],
      "stateMutability": "view",
      "type": "function"
    },
    {
      "inputs": [
        {
          "internalType": "address",
          "name": "spender",
          "type": "address"
        },
        {
          "internalType": "uint256",
          "name": "subtractedValue",
          "type": "uint256"
        }
      ],
      "name": "decreaseAllowance",
      "outputs": [
        {
          "internalType": "bool",
          "name": "",
          "type": "bool"
        }
      ],
      "stateMutability": "nonpayable",
      "type": "function"
    },
    {
      "inputs": [
        {
          "internalType": "address",
          "name": "spender",
          "type": "address"
        },
        {
          "internalType": "uint256",
          "name": "addedValue",
          "type": "uint256"
        }
      ],
      "name": "increaseAllowance",
      "outputs": [
        {
          "internalType": "bool",
          "name": "",
          "type": "bool"
        }
      ],
      "stateMutability": "nonpayable",
      "type": "function"
    },
    {
      "inputs": [],
      "name": "mintOwner",
      "outputs": [],
      "stateMutability": "nonpayable",
      "type": "function"
    },
    {
      "inputs": [],
      "name": "name",
      "outputs": [
        {
          "internalType": "string",
          "name": "",
          "type": "string"
        }
      ],
      "stateMutability": "view",
      "type": "function"
    },
    {
      "inputs": [],
      "name": "symbol",
      "outputs": [
        {
          "internalType": "string",
          "name": "",
          "type": "string"
        }
      ],
      "stateMutability": "view",
      "type": "function"
    },
    {
      "inputs": [],
      "name": "totalSupply",
      "outputs": [
        {
          "internalType": "uint256",
          "name": "",
          "type": "uint256"
        }
      ],
      "stateMutability": "view",
      "type": "function"
    },
    {
      "inputs": [
        {
          "internalType": "address",
          "name": "to",
          "type": "address"
        },
        {
          "internalType": "uint256",
          "name": "amount",
          "type": "uint256"
        }
      ],
      "name": "transfer",
      "outputs": [
        {
          "internalType": "bool",
          "name": "",
          "type": "bool"
        }
      ],
      "stateMutability": "nonpayable",
      "type": "function"
    },
    {
      "inputs": [
        {
          "internalType": "address",
          "name": "from",
          "type": "address"
        },
        {
          "internalType": "address",
          "name": "to",
          "type": "address"
        },
        {
          "internalType": "uint256",
          "name": "amount",
          "type": "uint256"
        }
      ],
      "name": "transferFrom",
      "outputs": [
        {
          "internalType": "bool",
          "name": "",
          "type": "bool"
        }
      ],
      "stateMutability": "nonpayable",
      "type": "function"
    }
  ],
  "bytecode": "0x60806040526a084595161401484a00000060055569021e19e0c9bab24000006007553480156200002e57600080fd5b5060405162001fed38038062001fed8339818101604052810190620000549190620003e3565b81818160039081620000679190620006b3565b508060049081620000799190620006b3565b50505033600660006101000a81548173ffffffffffffffffffffffffffffffffffffffff021916908373ffffffffffffffffffffffffffffffffffffffff160217905550620000d133600754620000d960201b60201c565b5050620008b5565b600073ffffffffffffffffffffffffffffffffffffffff168273ffffffffffffffffffffffffffffffffffffffff16036200014b576040517f08c379a00000000000000000000000000000000000000000000000000000000081526004016200014290620007fb565b60405180910390fd5b6200015f600083836200024660201b60201c565b80600260008282546200017391906200084c565b92505081905550806000808473ffffffffffffffffffffffffffffffffffffffff1673ffffffffffffffffffffffffffffffffffffffff168152602001908152602001600020600082825401925050819055508173ffffffffffffffffffffffffffffffffffffffff16600073ffffffffffffffffffffffffffffffffffffffff167fddf252ad1be2c89b69c2b068fc378daa952ba7f163c4a11628f55a4df523b3ef8360405162000226919062000898565b60405180910390a362000242600083836200024b60201b60201c565b5050565b505050565b505050565b6000604051905090565b600080fd5b600080fd5b600080fd5b600080fd5b6000601f19601f8301169050919050565b7f4e487b7100000000000000000000000000000000000000000000000000000000600052604160045260246000fd5b620002b9826200026e565b810181811067ffffffffffffffff82111715620002db57620002da6200027f565b5b80604052505050565b6000620002f062000250565b9050620002fe8282620002ae565b919050565b600067ffffffffffffffff8211156200032157620003206200027f565b5b6200032c826200026e565b9050602081019050919050565b60005b83811015620003595780820151818401526020810190506200033c565b60008484015250505050565b60006200037c620003768462000303565b620002e4565b9050828152602081018484840111156200039b576200039a62000269565b5b620003a884828562000339565b509392505050565b600082601f830112620003c857620003c762000264565b5b8151620003da84826020860162000365565b91505092915050565b60008060408385031215620003fd57620003fc6200025a565b5b600083015167ffffffffffffffff8111156200041e576200041d6200025f565b5b6200042c85828601620003b0565b925050602083015167ffffffffffffffff81111562000450576200044f6200025f565b5b6200045e85828601620003b0565b9150509250929050565b600081519050919050565b7f4e487b7100000000000000000000000000000000000000000000000000000000600052602260045260246000fd5b60006002820490506001821680620004bb57607f821691505b602082108103620004d157620004d062000473565b5b50919050565b60008190508160005260206000209050919050565b60006020601f8301049050919050565b600082821b905092915050565b6000600883026200053b7fffffffffffffffffffffffffffffffffffffffffffffffffffffffffffffffff82620004fc565b620005478683620004fc565b95508019841693508086168417925050509392505050565b6000819050919050565b6000819050919050565b6000620005946200058e62000588846200055f565b62000569565b6200055f565b9050919050565b6000819050919050565b620005b08362000573565b620005c8620005bf826200059b565b84845462000509565b825550505050565b600090565b620005df620005d0565b620005ec818484620005a5565b505050565b5b81811015620006145762000608600082620005d5565b600181019050620005f2565b5050565b601f82111562000663576200062d81620004d7565b6200063884620004ec565b8101602085101562000648578190505b620006606200065785620004ec565b830182620005f1565b50505b505050565b600082821c905092915050565b6000620006886000198460080262000668565b1980831691505092915050565b6000620006a3838362000675565b9150826002028217905092915050565b620006be8262000468565b67ffffffffffffffff811115620006da57620006d96200027f565b5b620006e68254620004a2565b620006f382828562000618565b600060209050601f8311600181146200072b576000841562000716578287015190505b62000722858262000695565b86555062000792565b601f1984166200073b86620004d7565b60005b8281101562000765578489015182556001820191506020850194506020810190506200073e565b8683101562000785578489015162000781601f89168262000675565b8355505b6001600288020188555050505b505050505050565b600082825260208201905092915050565b7f45524332303a206d696e7420746f20746865207a65726f206164647265737300600082015250565b6000620007e3601f836200079a565b9150620007f082620007ab565b602082019050919050565b600060208201905081810360008301526200081681620007d4565b9050919050565b7f4e487b7100000000000000000000000000000000000000000000000000000000600052601160045260246000fd5b600062000859826200055f565b915062000866836200055f565b92508282019050808211156200088157620008806200081d565b5b92915050565b62000892816200055f565b82525050565b6000602082019050620008af600083018462000887565b92915050565b61172880620008c56000396000f3fe6080604052600436106100c25760003560e01c806370a082311161007f578063a482171911610059578063a4821719146102a4578063a9059cbb146102ae578063cecb06d0146102eb578063dd62ed3e14610302576100c2565b806370a08231146101ff57806395d89b411461023c578063a457c2d714610267576100c2565b806306fdde03146100c7578063095ea7b3146100f257806318160ddd1461012f57806323b872dd1461015a578063313ce5671461019757806339509351146101c2575b600080fd5b3480156100d357600080fd5b506100dc61033f565b6040516100e99190610e33565b60405180910390f35b3480156100fe57600080fd5b5061011960048036038101906101149190610eee565b6103d1565b6040516101269190610f49565b60405180910390f35b34801561013b57600080fd5b506101446103f4565b6040516101519190610f73565b60405180910390f35b34801561016657600080fd5b50610181600480360381019061017c9190610f8e565b6103fe565b60405161018e9190610f49565b60405180910390f35b3480156101a357600080fd5b506101ac61042d565b6040516101b99190610ffd565b60405180910390f35b3480156101ce57600080fd5b506101e960048036038101906101e49190610eee565b610436565b6040516101f69190610f49565b60405180910390f35b34801561020b57600080fd5b5061022660048036038101906102219190611018565b61046d565b6040516102339190610f73565b60405180910390f35b34801561024857600080fd5b506102516104b5565b60405161025e9190610e33565b60405180910390f35b34801561027357600080fd5b5061028e60048036038101906102899190610eee565b610547565b60405161029b9190610f49565b60405180910390f35b6102ac6105be565b005b3480156102ba57600080fd5b506102d560048036038101906102d09190610eee565b610628565b6040516102e29190610f49565b60405180910390f35b3480156102f757600080fd5b5061030061064b565b005b34801561030e57600080fd5b5061032960048036038101906103249190611045565b6106e9565b6040516103369190610f73565b60405180910390f35b60606003805461034e906110b4565b80601f016020809104026020016040519081016040528092919081815260200182805461037a906110b4565b80156103c75780601f1061039c576101008083540402835291602001916103c7565b820191906000526020600020905b8154815290600101906020018083116103aa57829003601f168201915b5050505050905090565b6000806103dc610770565b90506103e9818585610778565b600191505092915050565b6000600254905090565b600080610409610770565b9050610416858285610941565b6104218585856109cd565b60019150509392505050565b60006012905090565b600080610441610770565b905061046281858561045385896106e9565b61045d9190611114565b610778565b600191505092915050565b60008060008373ffffffffffffffffffffffffffffffffffffffff1673ffffffffffffffffffffffffffffffffffffffff168152602001908152602001600020549050919050565b6060600480546104c4906110b4565b80601f01602080910402602001604051908101604052809291908181526020018280546104f0906110b4565b801561053d5780601f106105125761010080835404028352916020019161053d565b820191906000526020600020905b81548152906001019060200180831161052057829003601f168201915b5050505050905090565b600080610552610770565b9050600061056082866106e9565b9050838110156105a5576040517f08c379a000000000000000000000000000000000000000000000000000000000815260040161059c906111ba565b60405180910390fd5b6105b28286868403610778565b60019250505092915050565b6005546105c96103f4565b111561060a576040517f08c379a00000000000000000000000000000000000000000000000000000000081526004016106019061124c565b60405180910390fd5b6000606434610619919061126c565b90506106253382610c43565b50565b600080610633610770565b90506106408185856109cd565b600191505092915050565b600660009054906101000a900473ffffffffffffffffffffffffffffffffffffffff1673ffffffffffffffffffffffffffffffffffffffff163373ffffffffffffffffffffffffffffffffffffffff16146106db576040517f08c379a00000000000000000000000000000000000000000000000000000000081526004016106d290611320565b60405180910390fd5b6106e733600754610c43565b565b6000600160008473ffffffffffffffffffffffffffffffffffffffff1673ffffffffffffffffffffffffffffffffffffffff16815260200190815260200160002060008373ffffffffffffffffffffffffffffffffffffffff1673ffffffffffffffffffffffffffffffffffffffff16815260200190815260200160002054905092915050565b600033905090565b600073ffffffffffffffffffffffffffffffffffffffff168373ffffffffffffffffffffffffffffffffffffffff16036107e7576040517f08c379a00000000000000000000000000000000000000000000000000000000081526004016107de906113b2565b60405180910390fd5b600073ffffffffffffffffffffffffffffffffffffffff168273ffffffffffffffffffffffffffffffffffffffff1603610856576040517f08c379a000000000000000000000000000000000000000000000000000000000815260040161084d90611444565b60405180910390fd5b80600160008573ffffffffffffffffffffffffffffffffffffffff1673ffffffffffffffffffffffffffffffffffffffff16815260200190815260200160002060008473ffffffffffffffffffffffffffffffffffffffff1673ffffffffffffffffffffffffffffffffffffffff168152602001908152602001600020819055508173ffffffffffffffffffffffffffffffffffffffff168373ffffffffffffffffffffffffffffffffffffffff167f8c5be1e5ebec7d5bd14f71427d1e84f3dd0314c0f7b2291e5b200ac8c7c3b925836040516109349190610f73565b60405180910390a3505050565b600061094d84846106e9565b90507fffffffffffffffffffffffffffffffffffffffffffffffffffffffffffffffff81146109c757818110156109b9576040517f08c379a00000000000000000000000000000000000000000000000000000000081526004016109b0906114b0565b60405180910390fd5b6109c68484848403610778565b5b50505050565b600073ffffffffffffffffffffffffffffffffffffffff168373ffffffffffffffffffffffffffffffffffffffff1603610a3c576040517f08c379a0000000000000000000000000000000000000000000000000000000008152600401610a3390611542565b60405180910390fd5b600073ffffffffffffffffffffffffffffffffffffffff168273ffffffffffffffffffffffffffffffffffffffff1603610aab576040517f08c379a0000000000000000000000000000000000000000000000000000000008152600401610aa2906115d4565b60405180910390fd5b610ab6838383610d99565b60008060008573ffffffffffffffffffffffffffffffffffffffff1673ffffffffffffffffffffffffffffffffffffffff16815260200190815260200160002054905081811015610b3c576040517f08c379a0000000000000000000000000000000000000000000000000000000008152600401610b3390611666565b60405180910390fd5b8181036000808673ffffffffffffffffffffffffffffffffffffffff1673ffffffffffffffffffffffffffffffffffffffff16815260200190815260200160002081905550816000808573ffffffffffffffffffffffffffffffffffffffff1673ffffffffffffffffffffffffffffffffffffffff168152602001908152602001600020600082825401925050819055508273ffffffffffffffffffffffffffffffffffffffff168473ffffffffffffffffffffffffffffffffffffffff167fddf252ad1be2c89b69c2b068fc378daa952ba7f163c4a11628f55a4df523b3ef84604051610c2a9190610f73565b60405180910390a3610c3d848484610d9e565b50505050565b600073ffffffffffffffffffffffffffffffffffffffff168273ffffffffffffffffffffffffffffffffffffffff1603610cb2576040517f08c379a0000000000000000000000000000000000000000000000000000000008152600401610ca9906116d2565b60405180910390fd5b610cbe60008383610d99565b8060026000828254610cd09190611114565b92505081905550806000808473ffffffffffffffffffffffffffffffffffffffff1673ffffffffffffffffffffffffffffffffffffffff168152602001908152602001600020600082825401925050819055508173ffffffffffffffffffffffffffffffffffffffff16600073ffffffffffffffffffffffffffffffffffffffff167fddf252ad1be2c89b69c2b068fc378daa952ba7f163c4a11628f55a4df523b3ef83604051610d819190610f73565b60405180910390a3610d9560008383610d9e565b5050565b505050565b505050565b600081519050919050565b600082825260208201905092915050565b60005b83811015610ddd578082015181840152602081019050610dc2565b60008484015250505050565b6000601f19601f8301169050919050565b6000610e0582610da3565b610e0f8185610dae565b9350610e1f818560208601610dbf565b610e2881610de9565b840191505092915050565b60006020820190508181036000830152610e4d8184610dfa565b905092915050565b600080fd5b600073ffffffffffffffffffffffffffffffffffffffff82169050919050565b6000610e8582610e5a565b9050919050565b610e9581610e7a565b8114610ea057600080fd5b50565b600081359050610eb281610e8c565b92915050565b6000819050919050565b610ecb81610eb8565b8114610ed657600080fd5b50565b600081359050610ee881610ec2565b92915050565b60008060408385031215610f0557610f04610e55565b5b6000610f1385828601610ea3565b9250506020610f2485828601610ed9565b9150509250929050565b60008115159050919050565b610f4381610f2e565b82525050565b6000602082019050610f5e6000830184610f3a565b92915050565b610f6d81610eb8565b82525050565b6000602082019050610f886000830184610f64565b92915050565b600080600060608486031215610fa757610fa6610e55565b5b6000610fb586828701610ea3565b9350506020610fc686828701610ea3565b9250506040610fd786828701610ed9565b9150509250925092565b600060ff82169050919050565b610ff781610fe1565b82525050565b60006020820190506110126000830184610fee565b92915050565b60006020828403121561102e5761102d610e55565b5b600061103c84828501610ea3565b91505092915050565b6000806040838503121561105c5761105b610e55565b5b600061106a85828601610ea3565b925050602061107b85828601610ea3565b9150509250929050565b7f4e487b7100000000000000000000000000000000000000000000000000000000600052602260045260246000fd5b600060028204905060018216806110cc57607f821691505b6020821081036110df576110de611085565b5b50919050565b7f4e487b7100000000000000000000000000000000000000000000000000000000600052601160045260246000fd5b600061111f82610eb8565b915061112a83610eb8565b9250828201905080821115611142576111416110e5565b5b92915050565b7f45524332303a2064656372656173656420616c6c6f77616e63652062656c6f7760008201527f207a65726f000000000000000000000000000000000000000000000000000000602082015250565b60006111a4602583610dae565b91506111af82611148565b604082019050919050565b600060208201905081810360008301526111d381611197565b9050919050565b7f746f6b656e20737570706c79206c696d697420686173206265656e207265616360008201527f6865640000000000000000000000000000000000000000000000000000000000602082015250565b6000611236602383610dae565b9150611241826111da565b604082019050919050565b6000602082019050818103600083015261126581611229565b9050919050565b600061127782610eb8565b915061128283610eb8565b925082820261129081610eb8565b915082820484148315176112a7576112a66110e5565b5b5092915050565b7f596f7520646f206e6f7420686176652061636365737320746f2074686973206660008201527f756e6374696f6e00000000000000000000000000000000000000000000000000602082015250565b600061130a602783610dae565b9150611315826112ae565b604082019050919050565b60006020820190508181036000830152611339816112fd565b9050919050565b7f45524332303a20617070726f76652066726f6d20746865207a65726f2061646460008201527f7265737300000000000000000000000000000000000000000000000000000000602082015250565b600061139c602483610dae565b91506113a782611340565b604082019050919050565b600060208201905081810360008301526113cb8161138f565b9050919050565b7f45524332303a20617070726f766520746f20746865207a65726f20616464726560008201527f7373000000000000000000000000000000000000000000000000000000000000602082015250565b600061142e602283610dae565b9150611439826113d2565b604082019050919050565b6000602082019050818103600083015261145d81611421565b9050919050565b7f45524332303a20696e73756666696369656e7420616c6c6f77616e6365000000600082015250565b600061149a601d83610dae565b91506114a582611464565b602082019050919050565b600060208201905081810360008301526114c98161148d565b9050919050565b7f45524332303a207472616e736665722066726f6d20746865207a65726f20616460008201527f6472657373000000000000000000000000000000000000000000000000000000602082015250565b600061152c602583610dae565b9150611537826114d0565b604082019050919050565b6000602082019050818103600083015261155b8161151f565b9050919050565b7f45524332303a207472616e7366657220746f20746865207a65726f206164647260008201527f6573730000000000000000000000000000000000000000000000000000000000602082015250565b60006115be602383610dae565b91506115c982611562565b604082019050919050565b600060208201905081810360008301526115ed816115b1565b9050919050565b7f45524332303a207472616e7366657220616d6f756e742065786365656473206260008201527f616c616e63650000000000000000000000000000000000000000000000000000602082015250565b6000611650602683610dae565b915061165b826115f4565b604082019050919050565b6000602082019050818103600083015261167f81611643565b9050919050565b7f45524332303a206d696e7420746f20746865207a65726f206164647265737300600082015250565b60006116bc601f83610dae565b91506116c782611686565b602082019050919050565b600060208201905081810360008301526116eb816116af565b905091905056fea26469706673582212203c8814680437ba87a786f6c628859b15bcb41262893909fb979a40d87e6510c864736f6c63430008110033",
  "linkReferences": {},
  "deployedLinkReferences": {}
}