{
  "_format": "hh-sol-artifact-1",
  "contractName": "PeerDAO",
  "sourceName": "contracts/DAO.sol",
  "abi": [
    {
      "inputs": [
        {
          "internalType": "address",
          "name": "tokenAddress",
          "type": "address"
        },
        {
          "internalType": "uint256",
          "name": "_joinAmount",
          "type": "uint256"
        },
        {
          "internalType": "uint256",
          "name": "_contributionAmount",
          "type": "uint256"
        },
        {
          "internalType": "uint256",
          "name": "_successThreshold",
          "type": "uint256"
        },
        {
          "internalType": "uint256",
          "name": "_accessAmount",
          "type": "uint256"
        }
      ],
      "stateMutability": "nonpayable",
      "type": "constructor"
    },
    {
      "anonymous": false,
      "inputs": [
        {
          "indexed": false,
          "internalType": "address",
          "name": "account",
          "type": "address"
        },
        {
          "indexed": false,
          "internalType": "uint256",
          "name": "timestamp",
          "type": "uint256"
        }
      ],
      "name": "joinsDAO",
      "type": "event"
    },
    {
      "anonymous": false,
      "inputs": [
        {
          "indexed": false,
          "internalType": "address",
          "name": "proposer",
          "type": "address"
        },
        {
          "indexed": false,
          "internalType": "string",
          "name": "content",
          "type": "string"
        }
      ],
      "name": "proposalCreated",
      "type": "event"
    },
    {
      "inputs": [
        {
          "internalType": "uint256",
          "name": "videoId",
          "type": "uint256"
        }
      ],
      "name": "accessible",
      "outputs": [
        {
          "internalType": "bool",
          "name": "",
          "type": "bool"
        }
      ],
      "stateMutability": "view",
      "type": "function"
    },
    {
      "inputs": [
        {
          "internalType": "string",
          "name": "_contentHash",
          "type": "string"
        },
        {
          "internalType": "string",
          "name": "details",
          "type": "string"
        }
      ],
      "name": "createProposal",
      "outputs": [],
      "stateMutability": "nonpayable",
      "type": "function"
    },
    {
      "inputs": [
        {
          "internalType": "uint256",
          "name": "proposalId",
          "type": "uint256"
        }
      ],
      "name": "executeProposalAdmin",
      "outputs": [],
      "stateMutability": "nonpayable",
      "type": "function"
    },
    {
      "inputs": [
        {
          "internalType": "uint256",
          "name": "videoId",
          "type": "uint256"
        }
      ],
      "name": "getAccess",
      "outputs": [],
      "stateMutability": "payable",
      "type": "function"
    },
    {
      "inputs": [],
      "name": "getAllMembers",
      "outputs": [
        {
          "components": [
            {
              "internalType": "address",
              "name": "memberAddress",
              "type": "address"
            },
            {
              "internalType": "string",
              "name": "role",
              "type": "string"
            }
          ],
          "internalType": "struct PeerDAO.Member[]",
          "name": "",
          "type": "tuple[]"
        }
      ],
      "stateMutability": "view",
      "type": "function"
    },
    {
      "inputs": [],
      "name": "getAllProposals",
      "outputs": [
        {
          "components": [
            {
              "internalType": "uint256",
              "name": "id",
              "type": "uint256"
            },
            {
              "internalType": "address",
              "name": "proposer",
              "type": "address"
            },
            {
              "internalType": "string",
              "name": "description",
              "type": "string"
            },
            {
              "internalType": "string",
              "name": "contentHash",
              "type": "string"
            },
            {
              "internalType": "uint256",
              "name": "forVotes",
              "type": "uint256"
            }
          ],
          "internalType": "struct PeerDAO.Proposal[]",
          "name": "",
          "type": "tuple[]"
        }
      ],
      "stateMutability": "view",
      "type": "function"
    },
    {
      "inputs": [],
      "name": "getAllVideos",
      "outputs": [
        {
          "components": [
            {
              "internalType": "uint256",
              "name": "id",
              "type": "uint256"
            },
            {
              "internalType": "address",
              "name": "poster",
              "type": "address"
            },
            {
              "internalType": "string",
              "name": "description",
              "type": "string"
            },
            {
              "internalType": "string",
              "name": "contentHash",
              "type": "string"
            }
          ],
          "internalType": "struct PeerDAO.Video[]",
          "name": "",
          "type": "tuple[]"
        }
      ],
      "stateMutability": "view",
      "type": "function"
    },
    {
      "inputs": [
        {
          "internalType": "uint256",
          "name": "proposalId",
          "type": "uint256"
        }
      ],
      "name": "getState",
      "outputs": [
        {
          "internalType": "enum PeerDAO.proposalState",
          "name": "",
          "type": "uint8"
        }
      ],
      "stateMutability": "view",
      "type": "function"
    },
    {
      "inputs": [
        {
          "internalType": "string",
          "name": "_role",
          "type": "string"
        }
      ],
      "name": "joinDAO",
      "outputs": [],
      "stateMutability": "nonpayable",
      "type": "function"
    },
    {
      "inputs": [
        {
          "internalType": "uint256",
          "name": "proposalId",
          "type": "uint256"
        }
      ],
      "name": "voteContribution",
      "outputs": [],
      "stateMutability": "nonpayable",
      "type": "function"
    }
  ],
  "bytecode": "0x60806040523480156200001157600080fd5b5060405162002abb38038062002abb833981810160405281019062000037919062000185565b84600260006101000a81548173ffffffffffffffffffffffffffffffffffffffff021916908373ffffffffffffffffffffffffffffffffffffffff16021790555083600381905550826004819055508160058190555033601260006101000a81548173ffffffffffffffffffffffffffffffffffffffff021916908373ffffffffffffffffffffffffffffffffffffffff1602179055508060068190555050505050506200020d565b600080fd5b600073ffffffffffffffffffffffffffffffffffffffff82169050919050565b60006200011282620000e5565b9050919050565b620001248162000105565b81146200013057600080fd5b50565b600081519050620001448162000119565b92915050565b6000819050919050565b6200015f816200014a565b81146200016b57600080fd5b50565b6000815190506200017f8162000154565b92915050565b600080600080600060a08688031215620001a457620001a3620000e0565b5b6000620001b48882890162000133565b9550506020620001c7888289016200016e565b9450506040620001da888289016200016e565b9350506060620001ed888289016200016e565b925050608062000200888289016200016e565b9150509295509295909350565b61289e806200021d6000396000f3fe6080604052600436106100915760003560e01c80637c0f6b35116100595780637c0f6b351461017e578063b00dbd6d146101a9578063c38e3434146101d2578063cceb68f5146101fd578063e179e46f1461022857610091565b8063202bb4c1146100965780632fc82012146100bf57806344c9af28146100db5780634adfe80c1461011857806365e481e214610155575b600080fd5b3480156100a257600080fd5b506100bd60048036038101906100b89190611b13565b610251565b005b6100d960048036038101906100d49190611b13565b6105cc565b005b3480156100e757600080fd5b5061010260048036038101906100fd9190611b13565b61067c565b60405161010f9190611bb7565b60405180910390f35b34801561012457600080fd5b5061013f600480360381019061013a9190611b13565b610741565b60405161014c9190611bed565b60405180910390f35b34801561016157600080fd5b5061017c60048036038101906101779190611d4e565b6107e3565b005b34801561018a57600080fd5b50610193610cf7565b6040516101a09190611f85565b60405180910390f35b3480156101b557600080fd5b506101d060048036038101906101cb9190611b13565b610e3e565b005b3480156101de57600080fd5b506101e7611051565b6040516101f491906120e2565b60405180910390f35b34801561020957600080fd5b50610212611234565b60405161021f9190612243565b60405180910390f35b34801561023457600080fd5b5061024f600480360381019061024a9190612265565b611421565b005b601260009054906101000a900473ffffffffffffffffffffffffffffffffffffffff1673ffffffffffffffffffffffffffffffffffffffff163373ffffffffffffffffffffffffffffffffffffffff16146102e1576040517f08c379a00000000000000000000000000000000000000000000000000000000081526004016102d890612331565b60405180910390fd5b6102eb60016116b3565b60006102f760016116c9565b905060006009600084815260200190815260200160002060010160009054906101000a900473ffffffffffffffffffffffffffffffffffffffff169050600060096000858152602001908152602001600020600201805461035790612380565b80601f016020809104026020016040519081016040528092919081815260200182805461038390612380565b80156103d05780601f106103a5576101008083540402835291602001916103d0565b820191906000526020600020905b8154815290600101906020018083116103b357829003601f168201915b5050505050905060006009600086815260200190815260200160002060030180546103fa90612380565b80601f016020809104026020016040519081016040528092919081815260200182805461042690612380565b80156104735780601f1061044857610100808354040283529160200191610473565b820191906000526020600020905b81548152906001019060200180831161045657829003601f168201915b50505050509050610482611a16565b60405180608001604052808681526020018573ffffffffffffffffffffffffffffffffffffffff16815260200184815260200183815250905060118190806001815401808255809150506001900390600052602060002090600402016000909190919091506000820151816000015560208201518160010160006101000a81548173ffffffffffffffffffffffffffffffffffffffff021916908373ffffffffffffffffffffffffffffffffffffffff160217905550604082015181600201908161054d919061255d565b506060820151816003019081610563919061255d565b5050506001600d600088815260200190815260200160002060020160026101000a81548160ff0219169083151502179055506001600d600088815260200190815260200160002060020160006101000a81548160ff021916908315150217905550505050505050565b6006543414610610576040517f08c379a0000000000000000000000000000000000000000000000000000000008152600401610607906126a1565b60405180910390fd5b6001600e600083815260200190815260200160002060003373ffffffffffffffffffffffffffffffffffffffff1673ffffffffffffffffffffffffffffffffffffffff16815260200190815260200160002060006101000a81548160ff02191690831515021790555050565b600042600d60008481526020019081526020016000206001015411156106a5576000905061073c565b600d600083815260200190815260200160002060020160009054906101000a900460ff16156106d7576001905061073c565b600d600083815260200190815260200160002060020160029054906101000a900460ff1615610709576003905061073c565b600d600083815260200190815260200160002060020160019054906101000a900460ff161561073b576002905061073c565b5b919050565b60008061074c6116d7565b90506000600e600085815260200190815260200160002060003373ffffffffffffffffffffffffffffffffffffffff1673ffffffffffffffffffffffffffffffffffffffff16815260200190815260200160002060009054906101000a900460ff1690506001151582151514806107c7575060011515811515145b156107d7576001925050506107de565b6000925050505b919050565b6000600260009054906101000a900473ffffffffffffffffffffffffffffffffffffffff1673ffffffffffffffffffffffffffffffffffffffff166370a08231336040518263ffffffff1660e01b815260040161084091906126d0565b602060405180830381865afa15801561085d573d6000803e3d6000fd5b505050506040513d601f19601f820116820180604052508101906108819190612700565b905060045481101561089257600080fd5b61089c60006116b3565b60006108a860006116c9565b9050806009600083815260200190815260200160002060000181905550836009600083815260200190815260200160002060030190816108e8919061255d565b508260096000838152602001908152602001600020600201908161090c919061255d565b5060006009600083815260200190815260200160002060040181905550336009600083815260200190815260200160002060010160006101000a81548173ffffffffffffffffffffffffffffffffffffffff021916908373ffffffffffffffffffffffffffffffffffffffff16021790555042600d60008381526020019081526020016000206000018190555062127500426109a8919061275c565b600d6000838152602001908152602001600020600101819055506000600d600083815260200190815260200160002060020160006101000a81548160ff0219169083151502179055506000600d600083815260200190815260200160002060020160016101000a81548160ff0219169083151502179055506001600b600083815260200190815260200160002060006101000a81548160ff021916908315150217905550610a54611a54565b600960008381526020019081526020016000206040518060a0016040529081600082015481526020016001820160009054906101000a900473ffffffffffffffffffffffffffffffffffffffff1673ffffffffffffffffffffffffffffffffffffffff1673ffffffffffffffffffffffffffffffffffffffff168152602001600282018054610ae290612380565b80601f0160208091040260200160405190810160405280929190818152602001828054610b0e90612380565b8015610b5b5780601f10610b3057610100808354040283529160200191610b5b565b820191906000526020600020905b815481529060010190602001808311610b3e57829003601f168201915b50505050508152602001600382018054610b7490612380565b80601f0160208091040260200160405190810160405280929190818152602001828054610ba090612380565b8015610bed5780601f10610bc257610100808354040283529160200191610bed565b820191906000526020600020905b815481529060010190602001808311610bd057829003601f168201915b50505050508152602001600482015481525050905060108190806001815401808255809150506001900390600052602060002090600502016000909190919091506000820151816000015560208201518160010160006101000a81548173ffffffffffffffffffffffffffffffffffffffff021916908373ffffffffffffffffffffffffffffffffffffffff1602179055506040820151816002019081610c94919061255d565b506060820151816003019081610caa919061255d565b506080820151816004015550507ff6683c1ffe46b98aee13437382371394d1eeaa0fe5fb4c32fe4b199c02b48f8a3386604051610ce89291906127c9565b60405180910390a15050505050565b6060600f805480602002602001604051908101604052809291908181526020016000905b82821015610e3557838290600052602060002090600202016040518060400160405290816000820160009054906101000a900473ffffffffffffffffffffffffffffffffffffffff1673ffffffffffffffffffffffffffffffffffffffff1673ffffffffffffffffffffffffffffffffffffffff168152602001600182018054610da490612380565b80601f0160208091040260200160405190810160405280929190818152602001828054610dd090612380565b8015610e1d5780601f10610df257610100808354040283529160200191610e1d565b820191906000526020600020905b815481529060010190602001808311610e0057829003601f168201915b50505050508152505081526020019060010190610d1b565b50505050905090565b806000600c600083815260200190815260200160002060003373ffffffffffffffffffffffffffffffffffffffff1673ffffffffffffffffffffffffffffffffffffffff16815260200190815260200160002060009054906101000a900460ff1690506001151581151503610eb257600080fd5b8260006003811115610ec757610ec6611b40565b5b610ed08261067c565b6003811115610ee257610ee1611b40565b5b14610eec57600080fd5b8360011515600b600083815260200190815260200160002060009054906101000a900460ff16151514610f1e57600080fd5b60011515600860003373ffffffffffffffffffffffffffffffffffffffff1673ffffffffffffffffffffffffffffffffffffffff16815260200190815260200160002060009054906101000a900460ff16151514610f7b57600080fd5b6001600c600087815260200190815260200160002060003373ffffffffffffffffffffffffffffffffffffffff1673ffffffffffffffffffffffffffffffffffffffff16815260200190815260200160002060006101000a81548160ff02191690831515021790555060016009600087815260200190815260200160002060040154611007919061275c565b600960008781526020019081526020016000206004018190555060055460096000878152602001908152602001600020600401541061104a576110498561172b565b5b5050505050565b60606011805480602002602001604051908101604052809291908181526020016000905b8282101561122b5783829060005260206000209060040201604051806080016040529081600082015481526020016001820160009054906101000a900473ffffffffffffffffffffffffffffffffffffffff1673ffffffffffffffffffffffffffffffffffffffff1673ffffffffffffffffffffffffffffffffffffffff16815260200160028201805461110890612380565b80601f016020809104026020016040519081016040528092919081815260200182805461113490612380565b80156111815780601f1061115657610100808354040283529160200191611181565b820191906000526020600020905b81548152906001019060200180831161116457829003601f168201915b5050505050815260200160038201805461119a90612380565b80601f01602080910402602001604051908101604052809291908181526020018280546111c690612380565b80156112135780601f106111e857610100808354040283529160200191611213565b820191906000526020600020905b8154815290600101906020018083116111f657829003601f168201915b50505050508152505081526020019060010190611075565b50505050905090565b60606010805480602002602001604051908101604052809291908181526020016000905b8282101561141857838290600052602060002090600502016040518060a0016040529081600082015481526020016001820160009054906101000a900473ffffffffffffffffffffffffffffffffffffffff1673ffffffffffffffffffffffffffffffffffffffff1673ffffffffffffffffffffffffffffffffffffffff1681526020016002820180546112eb90612380565b80601f016020809104026020016040519081016040528092919081815260200182805461131790612380565b80156113645780601f1061133957610100808354040283529160200191611364565b820191906000526020600020905b81548152906001019060200180831161134757829003601f168201915b5050505050815260200160038201805461137d90612380565b80601f01602080910402602001604051908101604052809291908181526020018280546113a990612380565b80156113f65780601f106113cb576101008083540402835291602001916113f6565b820191906000526020600020905b8154815290600101906020018083116113d957829003601f168201915b5050505050815260200160048201548152505081526020019060010190611258565b50505050905090565b600354600260009054906101000a900473ffffffffffffffffffffffffffffffffffffffff1673ffffffffffffffffffffffffffffffffffffffff166370a08231336040518263ffffffff1660e01b815260040161147f91906126d0565b602060405180830381865afa15801561149c573d6000803e3d6000fd5b505050506040513d601f19601f820116820180604052508101906114c09190612700565b10156114cb57600080fd5b600260009054906101000a900473ffffffffffffffffffffffffffffffffffffffff1673ffffffffffffffffffffffffffffffffffffffff166323b872dd33306003546040518463ffffffff1660e01b815260040161152c93929190612808565b600060405180830381600087803b15801561154657600080fd5b505af115801561155a573d6000803e3d6000fd5b505050506001600860003373ffffffffffffffffffffffffffffffffffffffff1673ffffffffffffffffffffffffffffffffffffffff16815260200190815260200160002060006101000a81548160ff0219169083151502179055506115be611a99565b60405180604001604052803373ffffffffffffffffffffffffffffffffffffffff168152602001838152509050600f81908060018154018082558091505060019003906000526020600020906002020160009091909190915060008201518160000160006101000a81548173ffffffffffffffffffffffffffffffffffffffff021916908373ffffffffffffffffffffffffffffffffffffffff1602179055506020820151816001019081611673919061255d565b5050507f6b66824a8055235bc3a7314514d5dfe1b9e0590dd01678887ce09ce17d97f12133426040516116a792919061283f565b60405180910390a15050565b6001816000016000828254019250508190555050565b600081600001549050919050565b6000600860003373ffffffffffffffffffffffffffffffffffffffff1673ffffffffffffffffffffffffffffffffffffffff16815260200190815260200160002060009054906101000a900460ff16905090565b60006009600083815260200190815260200160002060010160009054906101000a900473ffffffffffffffffffffffffffffffffffffffff169050600060096000848152602001908152602001600020600201805461178990612380565b80601f01602080910402602001604051908101604052809291908181526020018280546117b590612380565b80156118025780601f106117d757610100808354040283529160200191611802565b820191906000526020600020905b8154815290600101906020018083116117e557829003601f168201915b50505050509050600060096000858152602001908152602001600020600301805461182c90612380565b80601f016020809104026020016040519081016040528092919081815260200182805461185890612380565b80156118a55780601f1061187a576101008083540402835291602001916118a5565b820191906000526020600020905b81548152906001019060200180831161188857829003601f168201915b505050505090506118b660016116b3565b60006118c260016116c9565b90506118cc611a16565b60405180608001604052808381526020018673ffffffffffffffffffffffffffffffffffffffff16815260200185815260200184815250905060118190806001815401808255809150506001900390600052602060002090600402016000909190919091506000820151816000015560208201518160010160006101000a81548173ffffffffffffffffffffffffffffffffffffffff021916908373ffffffffffffffffffffffffffffffffffffffff1602179055506040820151816002019081611997919061255d565b5060608201518160030190816119ad919061255d565b5050506001600d600088815260200190815260200160002060020160026101000a81548160ff0219169083151502179055506001600d600088815260200190815260200160002060020160006101000a81548160ff021916908315150217905550505050505050565b604051806080016040528060008152602001600073ffffffffffffffffffffffffffffffffffffffff16815260200160608152602001606081525090565b6040518060a0016040528060008152602001600073ffffffffffffffffffffffffffffffffffffffff1681526020016060815260200160608152602001600081525090565b6040518060400160405280600073ffffffffffffffffffffffffffffffffffffffff168152602001606081525090565b6000604051905090565b600080fd5b600080fd5b6000819050919050565b611af081611add565b8114611afb57600080fd5b50565b600081359050611b0d81611ae7565b92915050565b600060208284031215611b2957611b28611ad3565b5b6000611b3784828501611afe565b91505092915050565b7f4e487b7100000000000000000000000000000000000000000000000000000000600052602160045260246000fd5b60048110611b8057611b7f611b40565b5b50565b6000819050611b9182611b6f565b919050565b6000611ba182611b83565b9050919050565b611bb181611b96565b82525050565b6000602082019050611bcc6000830184611ba8565b92915050565b60008115159050919050565b611be781611bd2565b82525050565b6000602082019050611c026000830184611bde565b92915050565b600080fd5b600080fd5b6000601f19601f8301169050919050565b7f4e487b7100000000000000000000000000000000000000000000000000000000600052604160045260246000fd5b611c5b82611c12565b810181811067ffffffffffffffff82111715611c7a57611c79611c23565b5b80604052505050565b6000611c8d611ac9565b9050611c998282611c52565b919050565b600067ffffffffffffffff821115611cb957611cb8611c23565b5b611cc282611c12565b9050602081019050919050565b82818337600083830152505050565b6000611cf1611cec84611c9e565b611c83565b905082815260208101848484011115611d0d57611d0c611c0d565b5b611d18848285611ccf565b509392505050565b600082601f830112611d3557611d34611c08565b5b8135611d45848260208601611cde565b91505092915050565b60008060408385031215611d6557611d64611ad3565b5b600083013567ffffffffffffffff811115611d8357611d82611ad8565b5b611d8f85828601611d20565b925050602083013567ffffffffffffffff811115611db057611daf611ad8565b5b611dbc85828601611d20565b9150509250929050565b600081519050919050565b600082825260208201905092915050565b6000819050602082019050919050565b600073ffffffffffffffffffffffffffffffffffffffff82169050919050565b6000611e1d82611df2565b9050919050565b611e2d81611e12565b82525050565b600081519050919050565b600082825260208201905092915050565b60005b83811015611e6d578082015181840152602081019050611e52565b60008484015250505050565b6000611e8482611e33565b611e8e8185611e3e565b9350611e9e818560208601611e4f565b611ea781611c12565b840191505092915050565b6000604083016000830151611eca6000860182611e24565b5060208301518482036020860152611ee28282611e79565b9150508091505092915050565b6000611efb8383611eb2565b905092915050565b6000602082019050919050565b6000611f1b82611dc6565b611f258185611dd1565b935083602082028501611f3785611de2565b8060005b85811015611f735784840389528151611f548582611eef565b9450611f5f83611f03565b925060208a01995050600181019050611f3b565b50829750879550505050505092915050565b60006020820190508181036000830152611f9f8184611f10565b905092915050565b600081519050919050565b600082825260208201905092915050565b6000819050602082019050919050565b611fdc81611add565b82525050565b6000608083016000830151611ffa6000860182611fd3565b50602083015161200d6020860182611e24565b50604083015184820360408601526120258282611e79565b9150506060830151848203606086015261203f8282611e79565b9150508091505092915050565b60006120588383611fe2565b905092915050565b6000602082019050919050565b600061207882611fa7565b6120828185611fb2565b93508360208202850161209485611fc3565b8060005b858110156120d057848403895281516120b1858261204c565b94506120bc83612060565b925060208a01995050600181019050612098565b50829750879550505050505092915050565b600060208201905081810360008301526120fc818461206d565b905092915050565b600081519050919050565b600082825260208201905092915050565b6000819050602082019050919050565b600060a0830160008301516121486000860182611fd3565b50602083015161215b6020860182611e24565b50604083015184820360408601526121738282611e79565b9150506060830151848203606086015261218d8282611e79565b91505060808301516121a26080860182611fd3565b508091505092915050565b60006121b98383612130565b905092915050565b6000602082019050919050565b60006121d982612104565b6121e3818561210f565b9350836020820285016121f585612120565b8060005b85811015612231578484038952815161221285826121ad565b945061221d836121c1565b925060208a019950506001810190506121f9565b50829750879550505050505092915050565b6000602082019050818103600083015261225d81846121ce565b905092915050565b60006020828403121561227b5761227a611ad3565b5b600082013567ffffffffffffffff81111561229957612298611ad8565b5b6122a584828501611d20565b91505092915050565b600082825260208201905092915050565b7f596f752061726520617574686f72697a656420746f2063616c6c20746869732060008201527f66756e6374696f6e000000000000000000000000000000000000000000000000602082015250565b600061231b6028836122ae565b9150612326826122bf565b604082019050919050565b6000602082019050818103600083015261234a8161230e565b9050919050565b7f4e487b7100000000000000000000000000000000000000000000000000000000600052602260045260246000fd5b6000600282049050600182168061239857607f821691505b6020821081036123ab576123aa612351565b5b50919050565b60008190508160005260206000209050919050565b60006020601f8301049050919050565b600082821b905092915050565b6000600883026124137fffffffffffffffffffffffffffffffffffffffffffffffffffffffffffffffff826123d6565b61241d86836123d6565b95508019841693508086168417925050509392505050565b6000819050919050565b600061245a61245561245084611add565b612435565b611add565b9050919050565b6000819050919050565b6124748361243f565b61248861248082612461565b8484546123e3565b825550505050565b600090565b61249d612490565b6124a881848461246b565b505050565b5b818110156124cc576124c1600082612495565b6001810190506124ae565b5050565b601f821115612511576124e2816123b1565b6124eb846123c6565b810160208510156124fa578190505b61250e612506856123c6565b8301826124ad565b50505b505050565b600082821c905092915050565b600061253460001984600802612516565b1980831691505092915050565b600061254d8383612523565b9150826002028217905092915050565b61256682611e33565b67ffffffffffffffff81111561257f5761257e611c23565b5b6125898254612380565b6125948282856124d0565b600060209050601f8311600181146125c757600084156125b5578287015190505b6125bf8582612541565b865550612627565b601f1984166125d5866123b1565b60005b828110156125fd578489015182556001820191506020850194506020810190506125d8565b8683101561261a5784890151612616601f891682612523565b8355505b6001600288020188555050505b505050505050565b7f596f75206e65656420746f20706179207468652073706563696669656420616d60008201527f6f756e7420746f206163636573732074686520766964656f0000000000000000602082015250565b600061268b6038836122ae565b91506126968261262f565b604082019050919050565b600060208201905081810360008301526126ba8161267e565b9050919050565b6126ca81611e12565b82525050565b60006020820190506126e560008301846126c1565b92915050565b6000815190506126fa81611ae7565b92915050565b60006020828403121561271657612715611ad3565b5b6000612724848285016126eb565b91505092915050565b7f4e487b7100000000000000000000000000000000000000000000000000000000600052601160045260246000fd5b600061276782611add565b915061277283611add565b925082820190508082111561278a5761278961272d565b5b92915050565b600061279b82611e33565b6127a581856122ae565b93506127b5818560208601611e4f565b6127be81611c12565b840191505092915050565b60006040820190506127de60008301856126c1565b81810360208301526127f08184612790565b90509392505050565b61280281611add565b82525050565b600060608201905061281d60008301866126c1565b61282a60208301856126c1565b61283760408301846127f9565b949350505050565b600060408201905061285460008301856126c1565b61286160208301846127f9565b939250505056fea264697066735822122089593473df1c7c6cd7bf13edfddb5682929a526a16d384a8d52353c2e117b4c764736f6c63430008110033",
  "linkReferences": {},
  "deployedLinkReferences": {}
}